:020000040800F2
:1000000000C00020B53A00085138000853380008F5
:10001000553800085738000859380008000000001B
:10002000000000000000000000000000E1120008D5
:100030005B38000800000000111300085513000889
:10004000FD3A0008FD3A0008FD3A0008FD3A0008B4
:10005000FD3A0008FD3A0008FD3A0008FD3A0008A4
:10006000FD3A0008FD3A0008FD3A0008FD3A000894
:10007000FD3A0008FD3A0008FD3A0008FD3A000884
:10008000FD3A0008FD3A0008FD3A0008FD3A000874
:10009000FD3A0008FD3A0008FD3A0008FD3A000864
:1000A000FD3A00085D380008FD3A0008FD3A0008F6
:1000B000FD3A0008FD3A0008FD3A0008FD3A000844
:1000C000FD3A0008FD3A0008FD3A0008FD3A000834
:1000D000FD3A00086D3800087D380008FD3A000838
:1000E000FD3A0008FD3A0008FD3A0008FD3A000814
:1000F000FD3A0008FD3A0008FD3A0008FD3A000804
:10010000FD3A0008FD3A0008FD3A0008FD3A0008F3
:10011000FD3A0008FD3A0008FD3A0008FD3A0008E3
:10012000FD3A0008FD3A0008FD3A0008FD3A0008D3
:1001300000000000000000000000000000000000BF
:1001400000000000000000000000000000000000AF
:10015000000000000000000000000000000000009F
:10016000000000000000000000000000000000008F
:10017000000000000000000000000000000000007F
:10018000000000000000000000000000000000006F
:10019000000000000000000000000000000000005F
:1001A000000000000000000000000000000000004F
:1001B000000000000000000000000000000000003F
:1001C000000000000000000000000000000000002F
:1001D000000000000000000000000000000000001F
:0401E0005FF8E0F1F3
:1001F000034613F8012B002AFBD1181A0138704767
:100200004FF0FF0C1CEAD0521EBF1CEAD15392EAF9
:100210000C0F93EA0C0F6FD01A4480EA010C4002D5
:1002200018BF5FEA41211ED04FF0006343EA50102F
:1002300043EA5111A0FB01310CF00040B1F5000F71
:100240003EBF490041EAD3715B0040EA010062F120
:100250007F02FD2A1DD8B3F1004F40EBC25008BF0A
:1002600020F00100704790F0000F0CF0004C08BF28
:1002700049024CEA502040EA51207F3AC2BFD2F1F5
:10028000FF0340EAC250704740F400004FF0000303
:10029000013A5DDC12F1190FDCBF00F0004070473D
:1002A000C2F10002410021FA02F1C2F1200200FA7B
:1002B00002FC5FEA310040F1000053EA4C0308BF42
:1002C00020EADC70704792F0000F00F0004C02BF93
:1002D000400010F4000F013AF9D040EA0C0093F00E
:1002E000000F01F0004C02BF490011F4000F013B68
:1002F000F9D041EA0C018FE70CEAD15392EA0C0FD6
:1003000018BF93EA0C0F0AD030F0004C18BF31F040
:10031000004CD8D180EA010000F00040704790F016
:10032000000F17BF90F0004F084691F0000F91F0BA
:10033000004F14D092EA0C0F01D142020FD193EA80
:100340000C0F03D14B0218BF084608D180EA010008
:1003500000F0004040F0FE4040F40000704740F0E4
:10036000FE4040F44000704781F0004102E000BFD1
:1003700083F0004330B54FEA41044FEA430594EA65
:10038000050F08BF90EA020F1FBF54EA000C55EAA0
:10039000020C7FEA645C7FEA655C00F0E2804FEA71
:1003A0005454D4EB5555B8BF6D420CDD2C4480EA53
:1003B000020281EA030382EA000083EA010180EA83
:1003C000020281EA0303362D88BF30BD11F0004FD1
:1003D0004FEA01314FF4801C4CEA113102D0404207
:1003E00061EB410113F0004F4FEA03334CEA133342
:1003F00002D0524263EB430394EA050F00F0A7805A
:10040000A4F10104D5F1200E0DDB02FA0EFC22FA54
:1004100005F2801841F1000103FA0EF2801843FA48
:1004200005F359410EE0A5F120050EF1200E012A39
:1004300003FA0EFC28BF4CF0020C43FA05F3C01877
:1004400051EBE37101F0004507D54FF0000EDCF1F0
:10045000000C7EEB00006EEB0101B1F5801F1BD399
:10046000B1F5001F0CD349085FEA30004FEA3C0C9D
:1004700004F101044FEA445212F5800F80F09A8093
:10048000BCF1004F08BF5FEA500C50F1000041EB97
:10049000045141EA050130BD5FEA4C0C404141EB9B
:1004A0000101013C28BFB1F5801FE9D291F0000F96
:1004B00004BF01460020B1FA81F308BF2033A3F145
:1004C0000B03B3F120020CDA0C3208DD02F1140C3C
:1004D000C2F10C0201FA0CF021FA02F10CE002F177
:1004E0001402D8BFC2F1200C01FA02F120FA0CFC70
:1004F000DCBF41EA0C019040E41AA2BF01EB0451B9
:10050000294330BD6FEA04041F3C1CDA0C340EDCB6
:1005100004F11404C4F1200220FA04F001FA02F3F9
:1005200040EA030021FA04F345EA030130BDC4F1B7
:100530000C04C4F1200220FA02F001FA04F340EAAC
:100540000300294630BD21FA04F0294630BD94F05D
:10055000000F83F4801306BF81F480110134013D44
:100560004EE77FEA645C18BF7FEA655C29D094EAB5
:10057000050F08BF90EA020F05D054EA000C04BF33
:100580001946104630BD91EA030F1EBF002100201E
:1005900030BD5FEA545C05D14000494128BF41F0BD
:1005A000004130BD14F580043CBF01F5801130BD21
:1005B00001F0004545F0FE4141F470014FF00000AC
:1005C00030BD7FEA645C1ABF194610467FEA655C5D
:1005D0001CBF0B46024650EA013406BF52EA0335FF
:1005E00091EA030F41F4002130BD00BF90F0000FED
:1005F00004BF0021704730B54FF4806404F1320429
:100600004FF000054FF0000150E700BF90F0000FE1
:1006100004BF0021704730B54FF4806404F1320408
:1006200010F0004548BF40424FF000013EE700BFD8
:1006300042004FEAE2014FEA31014FEA02701FBF68
:1006400012F07F4393F07F4F81F06051704732F09A
:100650007F4208BF704793F07F4F04BF41F40021F1
:10066000704730B54FF4607401F0004521F000414F
:100670001CE700BF50EA010208BF704730B54FF0D9
:1006800000050AE050EA010208BF704730B511F0DA
:10069000004502D5404261EB41014FF4806404F112
:1006A00032045FEA915C3FF4D8AE4FF003025FEA98
:1006B000DC0C18BF03325FEADC0C18BF033202EB1C
:1006C000DC02C2F1200300FA03FC20FA02F001FA76
:1006D00003FE40EA0E0021FA02F11444BDE600BF19
:1006E00070B54FF0FF0C4CF4E06C1CEA11541DBFC8
:1006F0001CEA135594EA0C0F95EA0C0F00F0DEF893
:100700002C4481EA030621EA4C5123EA4C5350EA77
:10071000013518BF52EA033541F4801143F48013C8
:1007200038D0A0FB02CE4FF00005E1FB02E506F059
:100730000042E0FB03E54FF00006E1FB03569CF0AE
:10074000000F18BF4EF0010EA4F1FF04B6F5007FB4
:1007500064F5407404D25FEA4E0E6D4146EB060626
:1007600042EAC62141EA55514FEAC52040EA5E50AF
:100770004FEACE2EB4F1FD0C88BFBCF5E06F1ED859
:10078000BEF1004F08BF5FEA500E50F1000041EB90
:10079000045170BD06F0004646EA010140EA02003D
:1007A00081EA0301B4EB5C04C2BFD4EB0C0541EA5F
:1007B000045170BD41F480114FF0000E013C00F374
:1007C000AB8014F1360FDEBF002001F0004170BD98
:1007D000C4F10004203C35DA0C341BDC04F11404B1
:1007E000C4F1200500FA05F320FA04F001FA05F23D
:1007F00040EA020001F0004221F0004110EBD3700A
:1008000021FA04F642EB06015EEA430E08BF20EA35
:10081000D37070BDC4F10C04C4F1200500FA04F3D8
:1008200020FA05F001FA04F240EA020001F000416A
:1008300010EBD37041F100015EEA430E08BF20EADD
:10084000D37070BDC4F1200500FA05F24EEA020E25
:1008500020FA04F301FA05F243EA020321FA04F054
:1008600001F0004121FA04F220EA020000EBD3700B
:100870005EEA430E08BF20EAD37070BD94F0000F0B
:100880000FD101F00046400041EB010111F4801F3F
:1008900008BF013CF7D041EA060195F0000F18BFF0
:1008A000704703F00046520043EB030313F4801F2C
:1008B00008BF013DF7D043EA0603704794EA0C0FE6
:1008C0000CEA135518BF95EA0C0F0CD050EA4106FC
:1008D00018BF52EA4306D1D181EA030101F0004179
:1008E0004FF0000070BD50EA410606BF10461946A1
:1008F00052EA430619D094EA0C0F02D150EA0136AD
:1009000013D195EA0C0F05D152EA03361CBF1046ED
:1009100019460AD181EA030101F0004141F0FE418C
:1009200041F470014FF0000070BD41F0FE4141F410
:10093000780170BD70B54FF0FF0C4CF4E06C1CEA10
:1009400011541DBF1CEA135594EA0C0F95EA0C0FC5
:1009500000F0A7F8A4EB050481EA030E52EA033580
:100960004FEA013100F088804FEA03334FF08055A1
:1009700045EA131343EA12634FEA022245EA1115CE
:1009800045EA10654FEA00260EF000419D4208BF7F
:10099000964244F1FD0404F5407402D25B084FEA2C
:1009A0003202B61A65EB03055B084FEA32024FF4D8
:1009B00080104FF4002CB6EB020E75EB030E22BF35
:1009C000B61A754640EA0C005B084FEA3202B6EBF5
:1009D000020E75EB030E22BFB61A754640EA5C00A4
:1009E0005B084FEA3202B6EB020E75EB030E22BF34
:1009F000B61A754640EA9C005B084FEA3202B6EB35
:100A0000020E75EB030E22BFB61A754640EADC00F3
:100A100055EA060E18D04FEA051545EA16754FEA55
:100A200006164FEAC30343EA52734FEAC2025FEA73
:100A30001C1CC0D111F4801F0BD141EA00014FF002
:100A400000004FF0004CB6E711F4801F04BF0143D3
:100A50000020B4F1FD0C88BFBCF5E06F3FF6AFAEEF
:100A6000B5EB030C04BFB6EB020C5FEA500C50F17F
:100A7000000041EB045170BD0EF0004E4EEA113102
:100A800014EB5C04C2BFD4EB0C0541EA045170BD09
:100A900041F480114FF0000E013C90E645EA060E4D
:100AA0008DE60CEA135594EA0C0F08BF95EA0C0F7B
:100AB0003FF43BAF94EA0C0F0AD150EA01347FF4C3
:100AC00034AF95EA0C0F7FF425AF104619462CE79A
:100AD00095EA0C0F06D152EA03353FF4FDAE1046FD
:100AE000194622E750EA410618BF52EA43067FF44E
:100AF000C5AE50EA41047FF40DAF52EA43057FF4DE
:100B0000EBAE12E74FEA4102B2F1E04324BFB3F586
:100B1000001CDCF1FE5C0DD901F0004C4FEAC00274
:100B20004CEA5070B2F1004F40EB830008BF20F058
:100B30000100704711F0804F21D113F13872BCBF12
:100B400001F00040704741F480114FEA5252C2F167
:100B50001802C2F1200C10FA0CF320FA02F018BFB0
:100B600040F001004FEAC1234FEAD32303FA0CFC03
:100B700040EA0C0023FA02F34FEA4303CCE77FEA92
:100B8000625307D150EA01331EBF4FF0FE4040F4DC
:100B90004000704701F0004040F0FE4040F400008B
:100BA000704700BF80F0004002E000BF81F00041CC
:100BB00042001FBF5FEA410392EA030F7FEA226C03
:100BC0007FEA236C6AD04FEA1262D2EB1363C1BF93
:100BD000D218414048404140B8BF5B42192B88BF02
:100BE000704710F0004F40F4000020F07F4018BF25
:100BF000404211F0004F41F4000121F07F4118BF45
:100C0000494292EA030F3FD0A2F1010241FA03FCEC
:100C100010EB0C00C3F1200301FA03F100F00043D4
:100C200002D5494260EB4000B0F5000F13D3B0F19C
:100C3000807F06D340084FEA310102F10102FE2A0B
:100C400051D2B1F1004F40EBC25008BF20F001007B
:100C500040EA03007047490040EB0000013A28BF1A
:100C6000B0F5000FEDD2B0FA80FCACF1080CB2EB9D
:100C70000C0200FA0CF0AABF00EBC250524218431B
:100C8000BCBFD0401843704792F0000F81F40001C0
:100C900006BF80F400000132013BB5E74FEA410393
:100CA0007FEA226C18BF7FEA236C21D092EA030FFF
:100CB00004D092F0000F08BF0846704790EA010F79
:100CC0001CBF0020704712F07F4F04D1400028BFA6
:100CD00040F00040704712F100723CBF00F5000088
:100CE000704700F0004343F0FE4040F400007047BE
:100CF0007FEA226216BF08467FEA2363014642026A
:100D000006BF5FEA412390EA010F40F4800070477C
:100D10004FF0000304E000BF10F0004348BF404222
:100D20005FEA000C08BF704743F0964301464FF05E
:100D300000001CE050EA010208BF70474FF00003BA
:100D40000AE000BF50EA010208BF704711F00043FB
:100D500002D5404261EB41015FEA010C02BF8446CB
:100D60000146002043F0B64308BFA3F18053A3F52A
:100D70000003BCFA8CF2083AA3EBC25310DB01FA71
:100D800002FC634400FA02FCC2F12002BCF1004FF5
:100D900020FA02F243EB020008BF20F00100704786
:100DA00002F1200201FA02FCC2F1200250EA4C00DA
:100DB00021FA02F243EB020008BF20EADC70704720
:100DC0004FEA4002B2F1FE4F0FD34FF09E03B3EB58
:100DD00012620DD94FEA002343F0004310F0004F98
:100DE00023FA02F018BF404270474FF000007047EE
:100DF00012F1610F01D1420205D110F0004008BF8D
:100E00006FF0004070474FF00000704710B5054C80
:100E1000237833B9044B13B10448AFF300800123A6
:100E2000237010BD5C000020000000009444000806
:100E300008B5034B1BB103490348AFF3008008BD5D
:100E4000000000006000002094440008104BD3F81C
:100E5000FC2022F08072C3F8FC20D3F8FC2042F082
:100E60008072C3F8FC20A3F55D431A6822F00102EA
:100E70001A601A6842F001021A6000225A6000BF2C
:100E800000BF00BF5B680BB1104670470120704780
:100E900000ED00E043684B609A688A605160996099
:100EA0000861036801330360704703694168826821
:100EB0008A60416851605A68824206D0002202610D
:100EC0001A68013A1A601868704782685A60F5E734
:100ED000F0B589B004AD00240494059406940794F9
:100EE000214B9A6942F020029A619A6902F020022D
:100EF0000192019A9A6942F004029A619A6902F099
:100F000004020292029A9A6942F008029A619B696D
:100F100003F008030393039B144E22464FF44361EE
:100F2000304600F0B2FD4FF4406304930123059373
:100F30000694022707972946304600F087FC0823CD
:100F400004930B4B059306942946304600F07EFC33
:100F500030230493112305930694079729463046BE
:100F600000F074FC09B0F0BD00100240000C01401C
:100F70000000111030B585B09C238DF80B30124C59
:100F80004FF0FF35009501230DF10B02D0212046D3
:100F900001F0C6F84FF4877000F00AFB00950423B7
:100FA00003AAD021204601F075F910B1002005B048
:100FB00030BD9DF90C309DF80D00000240EA034061
:100FC0009DF80E301843F2E70801002030B583B0D9
:100FD00000220121D02000F08BFA012200219C2068
:100FE00000F086FA4FF4877000F0E2FA0022012147
:100FF000D12000F07DFA10B9002003B030BD0021EF
:10100000012000F093FA05468DF80400002101202C
:1010100000F08CFA04468DF805000121002000F054
:1010200085FA8DF806006DB2240244EA0544204397
:10103000E3E700000000000070B50C3906290ED867
:10104000DFE801F0040D240D070D0A004FF40066DF
:1010500007E04FF4004604E04FF4003601E04FF49F
:101060000036FFF7D3FA0CA3D3E90023FFF738FBD0
:1010700004460D463046FFF7C9FA02460B462046A5
:101080002946FFF757FCFFF73DFD70BD4FF40056B2
:10109000E7E700BFAFF30080FCA9F1D24D6200404A
:1010A00008B50268034B9A4200D008BD00F06EFA02
:1010B000FBE700BF002C014072B6FEE708B50A4806
:1010C0000A4B03600A4B436000238360C3604FF404
:1010D0008042026143618361C361036200F042FFA9
:1010E00000B908BDFFF7E8FF0801002000540040E8
:1010F000A086010008B50A480A4B03604FF4E133AB
:10110000436000238360C36003610C2242618361FA
:10111000C36102F03AF900B908BDFFF7CDFF00BF87
:10112000C00000200038014008B50A480A4B03609F
:101130004FF4E133436000238360C36003610C22FA
:1011400042618361C36102F020F900B908BDFFF775
:10115000B3FF00BF780000200044004010B590B0FD
:1011600006AC28220021204602F000FD0023019356
:101170000293039304930593012206924FF4803364
:1011800007934FF4003108910A9202220D920E93B8
:101190004FF4E0130F93204601F01EFB78B90F23A4
:1011A000019302210291002303934FF48062049281
:1011B000059301A801F048FD18B910B010BDFFF764
:1011C0007BFFFFF779FF00002DE9F043B9B000F095
:1011D000CBF9FFF7C3FFFFF77BFEFFF76FFFFFF7CA
:1011E00089FFFFF7A1FFFFF731FE08B1FFF764FFAA
:1011F00000F0E2F823E0644241E0404206AD049092
:10120000CDF80C90CDF808800194009733462E4A13
:10121000C821284602F074FC2846FEF7E9FF4FF08B
:10122000FF3382B22946294802F0DFF84FF400610B
:10123000274800F030FC4FF4FA7000F0B9F9FFF7DE
:1012400099FE06461221FFF7F7FEFFF7F1F91CA3FE
:10125000D3E90023FFF76EFBFFF754FC0446FFF7CA
:10126000AFFD0746FFF758FD01462046FFF79EFCFD
:101270001849FEF7C5FFFFF7A3FD041EBBDBFFF710
:10128000A5FE80461221FFF7D7FEFFF7D1F90CA388
:10129000D3E90023FFF74EFBFFF734FC0546FFF7C9
:1012A0008FFD8146FFF738FD01462846FFF77EFC9B
:1012B0000849FEF7A5FFFFF783FD00289DDB9DE7AA
:1012C00026FC99F067C2CF3FAC440008C000002064
:1012D000000C0140002474490000000000000000E0
:1012E000074B19680868B0E8F00F80F30988BFF36E
:1012F0006F8F4FF0000080F311884EF00D0E704795
:101300005C0200200000000000000000000000005F
:10131000EFF30980BFF36F8F0D4B1A6820E9F00FD0
:1013200010602DE908404FF0500080F3118802F062
:1013300075FB4FF0000080F31188BDE80840196884
:101340000868B0E8F00F80F30988BFF36F8F70472B
:101350005C02002008B54FF0500383F31188BFF3FF
:101360006F8FBFF34F8F02F0CDFA28B14FF0E0231B
:101370004FF08052C3F8042D002383F3118808BD79
:1013800010B582B001900A4B5C6801F013FD094B67
:10139000A3FB00239B0C019A02FB03F30193044B74
:1013A0005B681B1B019A9342F9D302B010BD00BFCA
:1013B000001000E083DE1B4310B5064C0122102113
:1013C000204600F062FB01222021204600F05DFB58
:1013D00010BD00BF000C014010B50F4C01222021B0
:1013E000204600F052FB01221021204600F04DFB68
:1013F0000520FFF7C5FF00221021204600F045FB25
:101400000520FFF7BDFF00222021204600F03DFB14
:101410000520FFF7B5FF10BD000C014010B50D4CC5
:1014200000221021204600F030FB0520FFF7A8FF26
:1014300001222021204600F028FB0520FFF7A0FF15
:1014400001221021204600F020FB0520FFF798FF25
:1014500010BD00BF000C014010B5B0B10122102139
:101460000D4800F012FB0520FFF78AFF0A4C01220D
:101470002021204600F009FB0520FFF781FF002214
:101480002021204600F001FB10BD0022102102485F
:1014900000F0FBFAE7E700BF000C014008B510219F
:1014A000034800F0EBFA012800D0002008BD00BF7F
:1014B000000C014038B50D4D01221021284600F0E6
:1014C000E4FA0520FFF75CFF01222021284600F006
:1014D000DCFA0520FFF754FFFFF7E0FF0446002287
:1014E0002021284600F0D1FA204638BD000C0140EA
:1014F00070B50446164609B900250AE0FFF76CFFEF
:10150000FAE704F08000FFF7A7FF6400E4B20135BA
:10151000EDB2072DF5D9FFF7CDFF04461EB9B4FA99
:1015200084F0400970BDFFF779FFF8E7F8B507468A
:101530000E4600252C4607E06400E4B2FFF7BAFF30
:101540000443E4B20135EDB2072DF5D92FB10020E7
:10155000FFF782FF2EB92046F8BD0120FFF77CFF80
:10156000F8E7FFF75BFFF6E708B5074A136843F0B3
:1015700010031360032000F063F80F2001F0D0FD8A
:1015800001F032F8002008BD00200240034A116833
:10159000034B1B780B441360704700BF5C010020B5
:1015A00000000020014B1868704700BF5C0100205C
:1015B00038B50446FFF7F6FF0546B4F1FF3F02D009
:1015C000044B1B781C44FFF7EDFF401BA042FAD3ED
:1015D00038BD00BF00000020002808DB0901C9B2A7
:1015E00000F1604000F5614080F80013704700F0A2
:1015F0000F000901C9B2014B1954704714ED00E006
:1016000000B500F00700C0F1070CBCF1040F28BFC3
:101610004FF0040C031D062B0FD9C31E4FF0FF3EE5
:101620000EFA0CF021EA000199400EFA03FE22EABC
:101630000E0241EA02005DF804FB0023EEE7000021
:10164000074AD36823F4E0631B041B0C000200F478
:10165000E060034343F0BF6343F40033D36070475B
:1016600000ED00E010B50446054BD868C0F3022039
:10167000FFF7C6FF01462046FFF7AEFF10BD00BFD3
:1016800000ED00E0002807DB00F01F024009012305
:101690009340024A42F82030704700BF00E100E06A
:1016A000034690F82120022A06D0042282630022F9
:1016B00080F820200120704701680A6822F00E029D
:1016C0000A6001680A6822F001020A60026CC06BBD
:1016D000012101FA02F2426083F82110002083F810
:1016E0002000704708B590F82130022B03D0042366
:1016F0008363012008BD0268136823F00E031360A2
:101700000268136823F00103136003684B4A934295
:101710004ED9783A934224D01432934230D01432C6
:1017200093422FD0143293422FD0143293422FD0B1
:10173000143293422FD0143293422FD002F56272AA
:1017400093422ED0143293422DD0143293422CD097
:101750001432934202D04FF4803203E04FF48052AF
:1017600000E00122364B5A60012380F8213000232B
:1017700080F82030436B002B5ED098470020B9E7FB
:101780001022EFE74FF48072ECE74FF48052E9E764
:101790004FF48032E6E74FF48012E3E74FF08072B7
:1017A000E0E70122DEE71022DCE74FF48072D9E7A0
:1017B000244A934224D01432934225D014329342C7
:1017C00024D01432934224D01432934224D01432C1
:1017D000934224D01432934224D002F56272934291
:1017E00023D01432934222D01432934221D01432A7
:1017F000934202D04FF4803203E04FF4805200E075
:101800000122114B5A60AFE71022FAE74FF48072C1
:10181000F7E74FF48052F4E74FF48032F1E74FF4EA
:101820008012EEE74FF08072EBE70122E9E7102229
:10183000E7E74FF48072E4E700205BE780000240B6
:1018400000040240080002400000024070B582B06F
:101850000024A446A8E0834DAB4214D00CD8A5F5D3
:101860008015AB420FD005F57025AB420BD0A5F526
:101870008015AB421FD106E07B4DAB4203D005F58E
:101880008035AB4217D18B68A3B1012B0DD04261DB
:10189000082410E0CC680EE0CC6804340BE0CC687F
:1018A000083408E0CC680C3405E00261082402E04A
:1018B000002400E00424BEF1FF0F41D806464FEAA1
:1018C0008C0233680F25954023EA050304FA02F2DF
:1018D000134333604B6813F0805F63D0634B9A69A6
:1018E00042F001029A619B6903F001030193019B9D
:1018F0004FEA9C02951C5E4B53F825600CF00305E3
:10190000AD000F23AB4026EA03065A4B98421ED087
:1019100003F58063984200F0838003F5806398426A
:1019200000F0808003F5806398427DD003F58063EA
:1019300098427BD003F58063984206D0062307E0E7
:10194000061DACF108029200BBE7052300E000236E
:10195000AB4033430232464D45F822304B6813F416
:10196000801F65D0444A936843EA0E0393604B6836
:1019700013F4001F62D0404AD36843EA0E03D360D9
:101980004B6813F4003F5FD03B4A536843EA0E03B1
:1019900053604B6813F4803F5CD0374A136843EAC6
:1019A0000E0313600CF1010C0B6833FA0CF257D0E4
:1019B000012202FA0CF203EA020E32EA0303F1D129
:1019C0004B68122B3FF647AF122B3FF674AF01A5C1
:1019D00055F823F087180008951800089F1800088C
:1019E000B1180008B7180008B7180008B7180008A1
:1019F000B7180008B7180008B7180008B71800088B
:101A0000B7180008B7180008B7180008B71800087A
:101A1000B7180008B718000899180008A51800089A
:101A2000012395E7022393E7032391E704238FE73C
:101A3000114A936823EA0E03936098E70E4AD3682D
:101A400023EA0E03D3609BE70B4A536823EA0E0395
:101A500053609EE7084A136823EA0E031360A1E768
:101A600002B070BD000022100000311000100240D2
:101A70000000014000080140000401408368194251
:101A800001D001207047002070470AB10161704702
:101A9000090401617047C36801EA030221EA0301F6
:101AA00041EA02410161704703685A6912F4806F8C
:101AB00001D1002070476FF480625A6100230363F4
:101AC000202280F83D2080F83E30026C42F0040273
:101AD000026480F83C30012070472DE9F041064651
:101AE0000C46174698463BE0FFF75CFD069BC01A84
:101AF000404502D8B8F1000F32D1012D18D033681B
:101B00009B6924EA03039BB2B3FA83F35B099F4208
:101B100026D100233363202286F83D2086F83E300C
:101B2000326C42F02002326486F83C30012027E01B
:101B300033685B6924EA03039BB2B3FA83F35B095E
:101B4000E5E733685B6924EA030C1FFA8CFCBCFAF6
:101B50008CFC4FEA5C1C674511D1B8F1FF3FC3D143
:101B6000C4F30745012DECD033689B6924EA030CCC
:101B70001FFA8CFCBCFA8CFC4FEA5C1CEBE70020E3
:101B8000BDE8F0812DE9F84305460E46904699469A
:101B900053E01A6842F400721A602B686FF4806296
:101BA0005A6100232B63202285F83D2085F83E30C2
:101BB0002A6C42F004022A6485F83C3001204AE095
:101BC000FFF7F0FCA0EB0900404502D8B8F1000F88
:101BD00033D1012F17D02B689B6926EA03039BB2F0
:101BE000003B18BF012343B300232B63202285F859
:101BF0003D2085F83E302A6C42F020022A6485F8A8
:101C00003C30012027E02B685B6926EA03039BB286
:101C1000003B18BF0123E6E72B689C6926EA040411
:101C2000A4B2003C18BF0124A4B12B685A6912F475
:101C3000806FAED1B8F1FF3FC2D1C6F30747012F85
:101C4000EAD12B685C6926EA0404A4B2003C18BF00
:101C50000124E9E70020BDE8F8830000F0B583B077
:101C600004460D4616461F46C36A082B0DD0012BAD
:101C70000BD013F5803F08D0036B122B0AD10268FA
:101C8000136843F48073136004E02268136843F41C
:101C9000807313600097334600224FF001112046F5
:101CA000FFF71BFF80B92369B3F5804F16D1236876
:101CB00005F0FE051D613B46324613492046FFF7FD
:101CC00061FFF8B903B0F0BD23681B6813F4807F8F
:101CD00002D04FF4007323640320F3E7EB11226872
:101CE00003F0060343F0F00313613B463246074915
:101CF0002046FFF747FF18B92368EDB21D61DAE708
:101D00000120DFE70120DDE70200010008000100FB
:101D10002DE9F04184B004460D4616461F46C26ABE
:101D200001680B6843F480630B60082A0DD0012A18
:101D30000BD012F5803F08D0036B112B0AD102683B
:101D4000136843F48073136004E02268136843F45B
:101D5000807313600097334600224FF00111204634
:101D6000FFF7BBFE98B92369B3F5804F19D12368FB
:101D700045F00105EDB21D613B4632462A49204639
:101D8000FFF700FF00284CD104B0BDE8F0812368C4
:101D90001B6813F4807F02D04FF400732364032088
:101DA000F2E74FEAE51808F00608236848F0F00269
:101DB0001A613B4632461D492046FFF7E3FE08B153
:101DC0000120E1E72368EDB21D613B46324616492A
:101DD0002046FFF7D7FE08B10120D5E70022039285
:101DE000236859690391996903910399196841F42A
:101DF00080711960009733464FF001112046FFF7BC
:101E00006CFE20B9226848F0F1031361B4E723683F
:101E10001B6813F4807F02D04FF400732364032007
:101E2000B2E70120B0E700BF020001000800010096
:101E300070B504460D46164623685B6913F0800FA3
:101E400021D12046FFF730FEF8B9B5F1FF3FF3D0BE
:101E5000FFF7A8FB801BA84201D8002DECD1236816
:101E60005B6913F0800FE7D100232363202284F8FD
:101E70003D2084F83E30226C42F02002226484F837
:101E80003C30012000E0002070BD0120FCE770B56F
:101E900004460D46164623685B6913F0040F21D1F2
:101EA0002046FFF701FEF8B9B5F1FF3FF3D0FFF789
:101EB00079FB801BA84201D8002DECD123685B6917
:101EC00013F0040FE7D100232363202284F83D2080
:101ED00084F83E30226C42F02002226484F83C30C8
:101EE000012000E0002070BD0120FCE770B5044631
:101EF0000D46164614E06FF010025A61002323636A
:101F0000202284F83D2084F83E30226C226484F83C
:101F10003C30012025E023685B6913F0400F10D0AE
:101F20002368586910F0400F1AD1586910F0100F4B
:101F3000E1D1FFF737FB801BA842ECD8002DEFD191
:101F4000E9E700232363202284F83D2084F83E3013
:101F5000226C42F02002226484F83C30012000E030
:101F6000002070BD002800F0CC8070B5044690F8C9
:101F70003D30002B77D0242384F83D30226813684D
:101F800023F0010313602268136843F400431360D5
:101F90002268136823F40043136000F011FF6268A5
:101FA0005A4B9A4264D85A4B98428CBF0023012363
:101FB000002B40F0A8805749A1FB00318B0C25680D
:101FC0006A6822F03F0242EA91426A6021680A6A26
:101FD00022F03F0266684D4DAE424FD801331343A5
:101FE0000B622168CA6922F44F4222F0FF02656841
:101FF000464B9D424CD8431E6D00B3FBF5F30133B5
:1020000040F6FC70034278D0C3F30B031A43CA6155
:1020100021680B6823F0C003E269206A024313437E
:102020000B6021688B6823F4034323F0FF032269CC
:10203000E068024313438B602168CB6823F0FF0301
:102040006269A06902431343CB602268136843F0BE
:102050000103136000202064202384F83D302063B6
:1020600084F83E0070BD80F83C3000F0E7FA82E76B
:10207000294B98428CBF0023012399E74FF49675B2
:1020800005FB03F3254DA5FB03539B090133A6E78D
:10209000A668BEB9431E05EB450CB3FBFCF3013348
:1020A000C3F30B03B3FA83F35B0943BBC6B9431E07
:1020B00005EB4505B3FBF5F30133C3F30B0343F421
:1020C0000043A3E7431E05EB850C0CEB8C0CB3FB24
:1020D000FCF30133C3F30B03B3FA83F35B09E4E7C7
:1020E000431E05EB850505EB8505B3FBF5F30133D1
:1020F000C3F30B0343F4404388E7042386E701233B
:1021000084E7012070470120ACE700BFA0860100F2
:102110007F841E0083DE1B43FF083D00D34D621009
:102120002DE9F04385B004460F46904699460C9E33
:10213000FFF738FA94F83D10202904D002273846DA
:1021400005B0BDE8F08305460090192301224F49F0
:102150002046FFF7C2FC002840F0928094F83C3003
:10216000012B00F08F80012384F83C3023681A682B
:1021700012F0010F03D11A6842F001021A602268BE
:10218000136823F400631360212384F83D30102387
:1021900084F83E3000232364C4F82480A4F82A90F5
:1021A000638D23853A4BE3622B46324639462046FF
:1021B000FFF754FD0746002866D1002303932368E8
:1021C0005A6903929B690393039B11E0236C042BD0
:1021D00001D00127B3E72268136843F4007313604A
:1021E000F7E72A4631462046FFF751FE00282ED158
:1021F000238D002B36D02A4631462046FFF718FEA5
:102200000028E3D1626A236812781A61606A431C6D
:102210006362618D89B2013989B26185238D013B89
:102220009BB223852268516911F0040FD9D0002B8D
:10223000D7D043781361636A01336362638D9BB2C5
:10224000013B9BB26385238D013B2385C9E7236C4A
:10225000042B01D0012772E72268136843F400734E
:102260001360F7E72268136843F4007313602023B8
:1022700084F83D30002384F83E3084F83C305EE73B
:1022800002275CE702275AE7012758E702001000FF
:102290000000FFFF2DE9F04389B004460F46914648
:1022A0009846109E00230793FFF77CF994F83D3081
:1022B000202B04D00227384609B0BDE8F08305463C
:1022C0000090192301229E492046FFF706FC0028B2
:1022D00040F07D8194F83C30012B00F07A8101239D
:1022E00084F83C3023681A6812F0010F03D11A6891
:1022F00042F001021A602268136823F4006313603D
:10230000222384F83D30102384F83E3000232364D8
:10231000C4F82490A4F82A80638D2385894BE36256
:102320002B46324639462046FFF7F2FC0746002886
:1023300040F05181238D5BB9039323685A6903925E
:102340009A690392039A1A6842F400721A6076E05E
:10235000012B0FD0022B21D02268136843F4806335
:1023600013600023069323685A6906929B690693BB
:10237000069B64E02268136823F48063136072B6DE
:102380000023049323685A6904929A690492049A78
:102390001A6842F400721A6062B650E0226813684C
:1023A00043F40063136072B60023059323685A69EF
:1023B00005929A690592059A1A6822F480621A6059
:1023C00062B63CE02A4631462046FFF78FFD0028E2
:1023D00040F0038123681A69636A1A70636A0133E3
:1023E0006362238D013B2385638D9BB2013B9BB2CE
:1023F000638524E072B62268136843F400731360A7
:1024000023681A69636A1A70636A01336362238DF1
:10241000013B2385638D9BB2013B9BB2638562B612
:1024200023681A69636A1A70636A01336362238DD1
:10243000013B2385638D9BB2013B9BB26385218D5C
:10244000002900F0BB80032900F284800129B9D063
:1024500002290AD10095334600223B492046FFF766
:102460003CFB0028C6D0012725E700953346002213
:1024700035492046FFF731FB002840F0B080226844
:10248000136823F48063136072B623681A69636A61
:102490001A70636A01336362238D013B2385638D68
:1024A0009BB2013B9BB26385284B1B68DB08284A23
:1024B000A2FB03231B0A03EB8303C3EBC3030793B2
:1024C0000799013907910799002928D023685A698B
:1024D00012F0040FF4D01A6842F400721A602368F4
:1024E0001A69636A1A70636A01336362238D013B60
:1024F0002385638D9BB2013B9BB2638562B62368E3
:102500001A69636A1A70636A01336362238D013B3F
:102510002385638D9BB2013B9BB263858FE70023CC
:102520002363202284F83D2084F83E30226C42F060
:102530002002226462B684F83C300127BBE600BF6B
:10254000020010000000FFFF04000100080000204E
:1025500089B5F8142A4631462046FFF7C7FC002803
:102560003FD123681A69636A1A70636A0133636230
:10257000228D013A92B22285638D9BB2013B9BB2C0
:1025800063852368596911F0040F3FF458AF032A9B
:102590000FD023681A69636A1A70636A0133636231
:1025A000238D013B2385638D9BB2013B9BB26385E9
:1025B00045E71A6822F480621A60EAE7202384F86B
:1025C0003D30002384F83E3084F83C3073E6022727
:1025D00071E602276FE601276DE601276BE601270A
:1025E00069E6012767E600BF00B583B0114B9A6921
:1025F00042F001029A619A6902F001020092009A87
:10260000DA6942F08052DA61DB6903F080530193AA
:10261000019B00220F216FF00100FFF723F8064A0B
:10262000536823F0E06343F00073536003B05DF838
:1026300004FB00BF001002400000014010B586B04E
:10264000002302930393049305930268154B9A4267
:1026500001D006B010BD144CA36943F00803A36178
:10266000A36903F008030093009B4FF440730293A7
:10267000122303930323059302A90C48FFF7E6F8FE
:102680000B4A536843F0E06343F002035360E3698D
:1026900043F40013E361E36903F400130193019B26
:1026A000D7E700BF0054004000100240000C01407A
:1026B0000000014070B588B0002304930593069391
:1026C00007930368354A934204D0354A934234D085
:1026D00008B070BD334B9A6942F480429A619A699E
:1026E00002F480420092009A9A6942F004029A61D0
:1026F0009B6903F004030193019B4FF4007304935F
:10270000022305930323079304AE274D3146284641
:10271000FFF79CF84FF4806304930024059406941B
:1027200031462846FFF792F8224605212520FEF77C
:1027300099FF2520FEF7A6FFCAE71A4BDA6942F493
:102740000032DA61DA6902F400320292029A9A697E
:1027500042F004029A619B6903F004030393039B14
:1027600004230493022305930323079304AE0E4D21
:1027700031462846FFF76AF808230493002405949D
:10278000069431462846FFF761F8224605212620A7
:10279000FEF768FF2620FEF775FF99E70038014035
:1027A00000440040001002400008014082B0084B85
:1027B0001B68084AA2FB03235B0A00FB03F3019397
:1027C00000BF019B5A1E0192002BF9D102B0704745
:1027D00008000020D34D6210002800F0F18170B590
:1027E00082B00446036813F0010F2CD0994B5B684C
:1027F00003F00C03042B1DD0964B5B6803F00C0315
:10280000082B12D06368B3F5803F41D0002B55D11F
:1028100003F1804303F504331A6822F480321A600E
:102820001A6822F480221A6037E08A4B5B6813F43E
:10283000803FE7D0874B1B6813F4003F03D06368E9
:10284000002B00F0BF81236813F0020F75D0814B7D
:102850005B6813F00C0F5FD07E4B5B6803F00C03DA
:10286000082B54D02369002B00F08A807A4B012278
:102870001A60FEF797FE0546764B1B6813F0020FB1
:1028800075D1FEF78FFE401B0228F5D903209EE18B
:10289000704A136843F480331360636843B3FEF7F0
:1028A00081FE05466B4B1B6813F4003FCBD1FEF74E
:1028B00079FE401B6428F5D9032088E1B3F5A02FE9
:1028C00009D0644B1A6822F480321A601A6822F424
:1028D00080221A60E1E703F18043A3F53C331A68D4
:1028E00042F480221A601A6842F480321A60D4E7F7
:1028F000FEF758FE0546574B1B6813F4003FA2D065
:10290000FEF750FE401B6428F5D903205FE1514BD0
:102910005B6813F4803FA5D14E4B1B6813F0020F88
:1029200003D02369012B40F04F814A4A136823F0FA
:10293000F803616943EAC1031360236813F0080FC9
:1029400033D0A369002B5CD0434B0122C3F8802411
:10295000FEF728FE05463F4B5B6A13F0020F21D1BC
:10296000FEF720FE401B0228F5D903202FE1394A4B
:10297000136823F0F803616943EAC1031360DCE7DD
:10298000354B00221A60FEF70DFE0546314B1B68E1
:1029900013F0020FD1D0FEF705FE401B0228F5D937
:1029A000032014E10120FFF701FF236813F0040F57
:1029B00000F09680274BDB6913F0805F34D1254B04
:1029C000DA6942F08052DA61DB6903F080530193E7
:1029D000019B0125214B1B6813F4807F26D0E368FF
:1029E000012B3DD0002B53D103F1804303F5043379
:1029F0001A6A22F001021A621A6A22F004021A62AA
:102A000033E0154B0022C3F88024FEF7CBFD0546CA
:102A1000104B5B6A13F0020FC7D0FEF7C3FD401BDB
:102A20000228F5D90320D2E00025D3E70B4A13682A
:102A300043F480731360FEF7B5FD0646074B1B6831
:102A400013F4807FCBD1FEF7ADFD801B6428F5D950
:102A50000320BCE000100240000042420070004031
:102A60005F4A136A43F001031362E36833B3FEF76E
:102A700099FD06465A4B1B6A13F0020F2FD1FEF741
:102A800091FD801B41F288339842F3D903209EE0E8
:102A9000052B09D0524B1A6A22F001021A621A6AF7
:102AA00022F004021A62E0E74D4B1A6A42F0040277
:102AB0001A621A6A42F001021A62D6E7FEF772FD44
:102AC0000646474B1B6A13F0020F08D0FEF76AFD5B
:102AD000801B41F288339842F3D9032077E0E5B9AF
:102AE000E369002B72D03E4A526802F00C02082AB9
:102AF00056D0022B17D03B4B00221A66FEF752FD30
:102B00000446374B1B6813F0007F47D0FEF74AFDA1
:102B1000001B0228F5D9032059E0314AD36923F07C
:102B20008053D361DCE72F4B00221A66FEF73AFD93
:102B300005462B4B1B6813F0007F06D0FEF732FDD5
:102B4000401B0228F5D9032041E0236AB3F5803FFA
:102B50001AD023494B6823F47413226A606A024333
:102B600013434B601F4B01221A66FEF71BFD044600
:102B70001B4B1B6813F0007F0ED1FEF713FD001BEB
:102B80000228F5D9032022E0154A536823F40033C4
:102B9000A1680B435360DCE7002018E0002016E03A
:102BA000012B16D00E4B5B6803F48031226A9142F0
:102BB00011D103F47013626A93420ED1002006E033
:102BC00001207047012002E0012000E0002002B057
:102BD00070BD0120FBE70120F9E70120F7E700BF06
:102BE0000010024000004242114B5B6803F00C02EF
:102BF000042A18D0082A18D1C3F383420D49885CEF
:102C000013F4803F0BD00A4B5B68C3F340430A4A7E
:102C1000D35C0A4A02FB00F0B0FBF3F07047084BAC
:102C200003FB00F07047054870470648704700BF37
:102C300000100240F4440008F04400080024F400AE
:102C400000093D0000127A00002800F0A08070B555
:102C50000D460446524B1B6803F007038B420BD210
:102C60004F4A136823F007030B431360136803F004
:102C700007038B4240F08D80236813F0020F17D0BA
:102C800013F0040F04D0474A536843F4E0635360E1
:102C9000236813F0080F04D0424A536843F460538A
:102CA0005360404A536823F0F003A1680B4353601C
:102CB000236813F0010F31D06368012B20D0022B61
:102CC00025D0384A126812F0020F64D035494A689C
:102CD00022F0030213434B60FEF764FC0646314BBF
:102CE0005B6803F00C036268B3EB820F16D0FEF74B
:102CF00059FC801B41F288339842F0D9032045E00B
:102D0000284A126812F4003FE0D101203EE0254A33
:102D1000126812F0007FD9D1012037E0204B1B68E8
:102D200003F00703AB420AD91D4A136823F00703D7
:102D30002B431360136803F00703AB422DD12368C4
:102D400013F0040F06D0174A536823F4E063E168D8
:102D50000B435360236813F0080F07D0114A5368E0
:102D600023F46053216943EAC1035360FFF73CFF3A
:102D70000C4B5B68C3F303130B4AD35CD8400B4B7B
:102D800018600B4B186800F0CBF9002070BD0120D3
:102D900070470120FAE70120F8E70120F6E700BFBD
:102DA00000200240001002400C45000808000020EE
:102DB00004000020014B1868704700BF0800002085
:102DC00008B5FFF7F7FF044B5B68C3F30223034A20
:102DD000D35CD84008BD00BF001002400445000885
:102DE00008B5FFF7E7FF044B5B68C3F3C223034A50
:102DF000D35CD84008BD00BF001002400445000865
:102E00000F2303600B4B5A6802F0030242605A68BA
:102E100002F0F00282605A6802F4E062C2605B680D
:102E2000DB0803F4E0630361034B1B6803F0070353
:102E30000B60704700100240002002407047000005
:102E400090F83D30012B2FD1022380F83D300268ED
:102E5000D36843F00103D3600368154A934218D046
:102E600002F50062934214D0B3F1804F11D0A2F565
:102E7000983293420DD002F58062934209D002F558
:102E80008062934205D01A6842F001021A60002065
:102E900070479A6802F00702062A07D01A6842F0C3
:102EA00001021A600020704701207047002070471F
:102EB000002C0140704770477047704770B504465A
:102EC0000368DE681D6915F0020F10D016F0020FBE
:102ED0000DD06FF002021A610123037703689B692A
:102EE00013F0030F5ED0FFF7E6FF0023237715F002
:102EF000040F12D016F0040F0FD023686FF00402F5
:102F00001A610223237723689B6913F4407F4FD013
:102F10002046FFF7D0FF0023237715F0080F12D0CB
:102F200016F0080F0FD023686FF008021A6104230F
:102F300023772368DB6913F0030F40D02046FFF7A7
:102F4000BAFF0023237715F0100F12D016F0100FE0
:102F50000FD023686FF010021A61082323772368CB
:102F6000DB6913F4407F31D02046FFF7A4FF002334
:102F7000237715F0010F02D016F0010F2DD115F0B7
:102F8000800F02D016F0800F2FD115F0400F02D025
:102F900016F0400F31D115F0200F02D016F0200F9F
:102FA00033D170BDFFF786FF2046FFF785FF9CE712
:102FB0002046FFF77FFF2046FFF77EFFABE7204666
:102FC000FFF778FF2046FFF777FFBAE72046FFF7C5
:102FD00071FF2046FFF770FFC9E723686FF0010219
:102FE0001A612046FEF75CF8C9E723686FF080029B
:102FF0001A61204600F093F8C7E723686FF040029B
:103000001A612046FFF759FFC5E723686FF02002D9
:103010001A61204600F082F8C3E700000368284ADE
:10302000904212D002F5006290420ED0B0F1804F73
:103030000BD0A2F59832904207D002F58062904200
:1030400003D002F58062904203D123F070034A68F6
:1030500013431B4A904212D002F5006290420ED0F8
:10306000B0F1804F0BD0A2F59832904207D002F514
:103070008062904203D002F58062904203D123F433
:103080004073CA68134323F080034A691343036003
:103090008B68C3620B688362094B984203D003F5C7
:1030A0000063984201D10B69036301234361036903
:1030B00013F0010F03D0036923F00103036170478C
:1030C000002C014040B310B5044690F83D30F3B1F8
:1030D000022384F83D30214651F8040BFFF79EFF90
:1030E000012384F8463084F83E3084F83F3084F879
:1030F000403084F8413084F8423084F8433084F81A
:10310000443084F8453084F83D30002010BD80F80C
:103110003C30FFF793FEDBE70120704770477047B4
:1031200030B589B004461E4B9A6942F400629A6138
:103130009B6903F400630193019B02A903A8FFF7B5
:103140005FFEFFF74DFE174AA2FB00239B0C013BDD
:103150001548164A026040F2E732C260436000231D
:10316000036183608361FFF7ADFF054610B1284618
:1031700009B030BD0C48FFF763FE05460028F6D1C4
:103180001920FEF77FFA0F2C01D90125EFE7002265
:1031900021461920FEF766FA054B1C60E7E700BFE1
:1031A0000010024083DE1B4360010020002C014020
:1031B00004000020026802F10C0353E8003F23F4EE
:1031C00090730C3242E800310029F3D1026802F119
:1031D000140353E8003F23F00103143242E80031A6
:1031E0000029F3D1036B012B05D0202380F8423056
:1031F000002303637047026802F10C0353E8003FA9
:1032000023F010030C3242E800310029F3D1ECE73F
:1032100090F84130212B01D0022070478368B3F52C
:10322000805F17D0036A5A1C02621A7803685A60DA
:10323000C38C9BB2013B9BB2C3844BB90268D36879
:1032400023F08003D3600268D36843F04003D36067
:10325000002070470369002BE4D1036A1B880268D1
:10326000C3F308035360036A02330362E0E700001C
:1032700010B504460268136923F44053C1680B4338
:10328000136183680269134342691A430168CB687A
:1032900023F4B05323F00C031343CB60026853694B
:1032A00023F4407381690B4353610268134B9A42C4
:1032B00020D0FFF785FD024602EB820202EB82027C
:1032C00063689B00B2FBF3F20D48A0FB0231490991
:1032D000642303FB11231B013233A0FB03035B09AF
:1032E00003F0F00202EB011203F00F032168134414
:1032F0008B6010BDFFF774FD0246DDE7003801402A
:103300001F85EB512DE9F04383B005460E46174665
:103310009946DDF828802B681C6836EA04040CBF47
:1033200001240024BC4228D1B8F1FF3FF3D0FEF7BE
:1033300039F9A0EB0900404523D8B8F1000F22D09D
:103340002B68DA6812F0040FE5D0802EE3D0402E0F
:10335000E1D01A6812F0080FDDD0002401941A6839
:1033600001925B680193019B2846FFF723FF082326
:103370006B6485F84040012000E0002003B0BDE808
:10338000F0830320FAE70320F8E760B310B50446A2
:1033900090F8413013B3242384F841302268D36875
:1033A00023F40053D3602046FFF762FF22681369BD
:1033B00023F4904313612268536923F02A03536175
:1033C0002268D36843F40053D36000206064202354
:1033D00084F8413084F84230606310BD80F840309A
:1033E000FFF768F9D7E7012070472DE9F04182B077
:1033F0001E4690F84130202B56D104460D4690468B
:10340000002955D00AB901204FE00023436421234D
:1034100080F84130FEF7C6F80746A4F82480A4F8E7
:103420002680A368B3F5805F02D04FF0000814E057
:1034300023692BB34FF000080FE0202384F84130BC
:10344000032032E038F8023B2268C3F308035360DC
:10345000E28C92B2013A92B2E284E38C9BB293B1D5
:1034600000963B46002280212046FFF74BFF0028B4
:10347000E3D1002DE6D015F8012B23685A60E7E769
:10348000A8460025E9E700963B4600224021204659
:10349000FFF738FF18B9202384F8413005E02023D6
:1034A00084F84130032000E0022002B0BDE8F08142
:1034B0000120FAE7704708B50168CA6822F04002A7
:1034C000CA60202280F84120FFF7F4FF002008BDE9
:1034D0007047704708B5406A0023C385C384FFF76F
:1034E000F8FF08BD704790F84230222B69D18368FD
:1034F000B3F5805F4FD0826AB3F5805F04D0002BB4
:1035000056D10369002B53D103685B681370836A3B
:1035100001338362C38D9BB2013B9BB2C385002BF9
:1035200051D100B583B00268D36823F02003D36083
:103530000268D36823F48073D3600268536923F070
:1035400001035361202380F8423000234363036B5F
:10355000012B33D100230363026802F10C0353E80B
:10356000003F23F010030C3242E800310029F3D170
:1035700003681A6812F0100F06D0002201921A6830
:1035800001925B680193019B818DFFF7ABFF0020E7
:1035900003B05DF804FB0269002AACD1826A0368BB
:1035A0005B68C3F308031380836A02338362B1E765
:1035B00003685B6803F07F031370A8E7FFF788FFD9
:1035C000E5E70220704700207047000010B582B088
:1035D000044602681368D068516913F00F0F09D1CF
:1035E00013F0200F0CD010F0200F09D02046FFF769
:1035F0007AFF16E011F0010115D110F4907F12D17D
:10360000216B012979D013F0800F03D010F0800FC7
:1036100040F0138113F0400F03D010F0400F40F042
:10362000108102B010BD13F0010F06D010F4807F9E
:1036300003D0626C42F00102626413F0040F04D004
:1036400019B1626C42F00202626413F0020F04D0FE
:1036500019B1626C42F00402626413F0080F07D0E3
:1036600010F0200F00D119B1626C42F008026264C0
:10367000626C002AD5D013F0200F02D010F0200F7A
:1036800029D123685B6903F04003626C12F0080FD4
:1036900000D163B32046FFF78DFD23685B6913F00B
:1036A000400F20D0226802F1140353E8003F23F0BA
:1036B0004003143242E800310029F3D1E36B73B1C7
:1036C000624A5A63E06BFEF70DF80028A9D0E06B60
:1036D000436B9847A5E72046FFF705FFD1E7204653
:1036E000FFF7F7FE9DE72046FFF7F3FE99E7204638
:1036F000FFF7EFFE0023636493E713F0100F82D00F
:1037000010F0100F3FF47FAF002301931368019373
:1037100053680193019B536913F0400F51D0E26B42
:1037200013685B689BB2002B3FF47BAFA18D99427D
:103730007FF677AFE3859369202B37D0226802F1BB
:103740000C0353E8003F23F480730C3242E800314D
:103750000029F3D1226802F1140353E8003F23F05B
:103760000103143242E800310029F3D1226802F14A
:10377000140353E8003F23F04003143242E80031C1
:103780000029F3D1202384F84230002323632268E8
:1037900002F10C0353E8003F23F010030C3242E81F
:1037A00000310029F3D1E06BFDF77AFF0223636358
:1037B000A18DE38D9BB2C91A89B22046FFF792FE14
:1037C0002FE7A18DE38D9BB2C91A89B2E38D9BB21D
:1037D000002B3FF426AF00293FF423AF226802F10B
:1037E0000C0353E8003F23F490730C3242E800309E
:1037F0000028F3D1226802F1140353E8003F23F0BC
:103800000103143242E800300028F3D1202384F869
:10381000423000232363226802F10C0353E8003F87
:1038200023F010030C3242E800300028F3D10223C9
:1038300063632046FFF756FEF3E62046FFF7E8FCF9
:10384000EFE62046FFF737FEEBE600BFD534000871
:10385000FEE7FEE7FEE7FEE7FEE7704708B5024831
:10386000FFF72CFB08BD00BF6001002008B502482F
:10387000FFF7ACFE08BD00BFC000002008B502483D
:10388000FFF7A4FE08BD00BF7800002010B5034676
:103890000C4A0D490D48006840B10C4800680344CB
:1038A000521A934206D8094A136010BD0748084CC3
:1038B0000460F2E700F062F90C2303604FF0FF3080
:1038C000F3E700BF00C0002000040000A8010020B2
:1038D000A803002070470000084B1B681B6823B931
:1038E000074B4FF0FF321A607047044B1B68DB68D0
:1038F000DB685A68024B1A60704700BFCC01002099
:10390000B0010020F8B53A4B1B68002B69D1394B48
:103910001D6801351D60C5B9374B1B681B6843B175
:103920004FF0500383F31188BFF36F8FBFF34F8FB6
:10393000FEE7314A1168314B186810601960304A4F
:10394000136801331360FFF7C7FF2E4B1B68AB42B0
:103950003DD900272C4B1B68DB6A03EB83039A00DD
:103960002A4B9B58012B00D90127294B1B68002BA0
:103970003CD001273AE001271F4B1B681B6843B36B
:103980001D4B1B68DB68DC6863689D4226D3261DDF
:103990003046FDF78AFAA36A1BB104F11800FDF75F
:1039A00084FAE36A01229A401A49086802430A60CD
:1039B00003EB83039A00314614481044FDF76AFA7A
:1039C000E26A114B1B68DB6A9A42D4D2D4E7002723
:1039D000D2E70C4B4FF0FF321A60BBE7094A136085
:1039E000B8E70D4A13680133136000273846F8BD65
:1039F000AC010020C4010020CC010020C80100203F
:103A0000B4010020B00100205C020020D0010020A1
:103A1000B8010020C0010020BC010020204B1B6821
:103A20001BB1204B01221A6070471E4B00221A6006
:103A30001D4B1B68B3FA83F3DBB2C3F11F0303EB27
:103A400083018A0019498A5842B94FF0500383F321
:103A50001188BFF36F8FBFF34F8FFEE7134803EB5F
:103A600083018A00024451684968516003EB830C6A
:103A70004FEA8C0208320244914209D003EB8303DF
:103A80009A000A4B13445B68DA68094B1A60704766
:103A9000486862469100054A0A445060EEE700BF5C
:103AA000AC010020B8010020C0010020D00100209E
:103AB0005C020020FFF70EFF0B480C490C4A002364
:103AC00002E0D458C4500433C4188C42F9D3094AD4
:103AD000094C002301E013600432A242FBD300F042
:103AE00053F8FDF771FB7047000000205C000020D8
:103AF000604500085C000020A8030020FEE70000ED
:103B00000CB430B5184B0C1E1D689DB008DA8B2321
:103B10004FF0FF302B601DB0BDE8304002B0704761
:103B20004FF40273ADF814304FF000031B930CBF39
:103B3000234604F1FF33049307934FF6FF7302907B
:103B40000690ADF81630284621AB209A02A90193C1
:103B500000F0A4F9431CBCBF8B232B60002CDAD0EF
:103B60000022029B1A70D6E70C0000200346024494
:103B7000934200D1704703F8011BF9E7014B186825
:103B8000704700BF0C00002070B500260C4D0D4B97
:103B90005B1B9C10A64209D1002600F07BFC0A4D5D
:103BA0000A4B5B1B9C10A64205D170BD55F8043B27
:103BB00098470136EEE755F8043B98470136F2E79F
:103BC0005845000858450008584500085C4500085D
:103BD000704770470A44914200F1FF3300D17047AB
:103BE00010B511F8014B914203F8014FF9D110BD06
:103BF00038B50546002940D051F8043C0C1F002B75
:103C0000B8BFE41800F0DEF81C4A136833B96360EB
:103C100014602846BDE8384000F0DAB8A34208D95D
:103C2000206821188B4201BF19685B680918216060
:103C3000EDE71A465B680BB1A342FAD91168501838
:103C4000A0420BD120680144501883421160E0D19A
:103C500018685B68084410605360DAE702D90C23E7
:103C60002B60D6E7206821188B4201BF19685B687A
:103C70000918216063605460CBE738BDA4030020BD
:103C800070B50F4E0C463168054611B900F0AEFB19
:103C900030602146284600F0A9FB431C03D14FF0B9
:103CA000FF34204670BDC41C24F00304A042F8D0A9
:103CB000211A284600F09AFB0130F2D1EFE700BF4D
:103CC000A00300202DE9F843CD1C25F0030508359D
:103CD0000C2D38BF0C25002D064601DBA94204D966
:103CE0000C2333600020BDE8F883DFF8D48000F0B7
:103CF00069F8D8F800301C4644BB29463046FFF727
:103D0000BFFF431C044658D1D8F800402746002F77
:103D100043D1002C4BD023683946304604EB0309CD
:103D200000F064FB814542D1216830466D1A294676
:103D3000FFF7A6FF01303AD023682B442360D8F860
:103D400000305A6862BBC8F800700FE02268521B4E
:103D500020D40B2A17D96119A342256018BF5960D6
:103D6000636808BFC8F8001062514B60304600F02D
:103D70002FF804F10B00231D20F00700C21A1CBF0E
:103D80001B1AA350AFE76268A3420CBFC8F800201B
:103D90005A60EBE723466468AEE73C467F68B6E7C7
:103DA0001A465B68A342FBD100235360DEE70C2375
:103DB0003046336000F00CF894E70560D6E700BFAA
:103DC000A40300200148FFF703BF00BF9C030020AD
:103DD0000148FFF7FEBE00BF9C0300202DE9F0471D
:103DE0001F468E688246BE420C469046334653D8E4
:103DF000B1F90C0010F4906F2BD065692368096944
:103E000005EB4505A3EB010905EBD5757B1C6D1092
:103E10004B44AB422A4684BF1D462A46430527D55C
:103E200011465046FFF74EFF064658B34A462169F1
:103E3000FFF7D0FEA38923F4906343F08003A381AE
:103E400026614E4426603B463E466561A5EB09056A
:103E5000A5601F463A464146206800F0ADFA0020B2
:103E6000A3689B1BA36023683B442360BDE8F087E5
:103E7000504600F0D9FA06460028E1D150462169A3
:103E8000FFF7B6FE0C23CAF80030A3894FF0FF30CD
:103E900043F04003A381E9E73E46DBE72DE9F04F1D
:103EA00098468B8907461B060D4614469DB010D5D3
:103EB0000B6973B94021FFF705FF2860286130B90D
:103EC0000C233B604FF0FF301DB0BDE8F08F402366
:103ED0006B610023099320238DF8293030234FF0A4
:103EE0000109CDF80C80DFF898818DF82A3023463F
:103EF0009A4613F8012B0AB1252AF9D1BAEB040B23
:103F00000BD05B46224629463846FFF767FF013053
:103F100000F0A780099A5A4409929AF80030002BC1
:103F200000F09F8000234FF0FF32CDE905230AF116
:103F3000010A049307938DF853301A9354460522CF
:103F400014F8011B4E4800F061FA049AD8B9D00663
:103F500044BF20238DF85330110744BF2B238DF825
:103F600053309AF800302A2B15D0544600204FF0D9
:103F70000A0C079A214611F8013B303B092B4BD91B
:103F8000B0B1079214E0A0EB080309FA03F313435E
:103F9000A2460493D2E7039B191D1B680391002BD3
:103FA000BBBF5B4242F0020207930793B8BF049283
:103FB00023782E2B0AD163782A2B32D1039B02342B
:103FC0001A1D1B68039243EAE3730593DFF8B4A05C
:103FD00003225046217800F019FA38B14022049BA0
:103FE000A0EB0A00824013430134049314F8011B30
:103FF000062225488DF8281000F008FA002836D04F
:10400000224B1BBB039B073323F0070308330393A7
:10401000099B334409936AE70C4601200CFB0232EA
:10402000A8E700234FF00A0C1946013405932046F7
:1040300010F8012B303A092A03D9002BC6D005917C
:10404000C4E7044601230CFB0121F0E703AB009316
:104050002A4638460E4B04A9AFF30080421C0646A0
:10406000D6D1AB895B063FF52DAF09982CE703ABA2
:1040700000932A463846064B04A900F07DF8EDE788
:104080001C450008224500082645000800000000E5
:10409000DD3D00082DE9F047164698468A680B6911
:1040A00007469342B8BF1346336091F843200C464D
:1040B000DDF820900AB1013333602368990642BFCE
:1040C000336802333360256815F0060506D104F124
:1040D000190AE36832689B1AAB422BDC94F8433030
:1040E0002268003B18BF0123920630D4414638466F
:1040F00004F14302C847013023D02368226903F04A
:104100000603042B14BF002533684FF0000608BFD8
:10411000E56804F11A0408BFED1A54F8123C08BF10
:1041200025EAE5759342C4BF9B1AED18B5421AD132
:10413000002008E00123524641463846C847013076
:1041400003D14FF0FF30BDE8F0870135C1E73020E3
:10415000E11881F843005A1C94F8451022440233B8
:1041600082F84310C2E70123224641463846C84739
:104170000130E6D00136D9E72DE9FF470F7E9146A1
:10418000782F80460C469A460C9E01F1430207D8D0
:10419000622F0AD8002F00F0D280582F00F0B7808D
:1041A00004F1420684F842703AE0A7F16303152B4C
:1041B000F6D801A151F823F0114200082542000869
:1041C000A1410008A1410008A1410008A141000847
:1041D00025420008A1410008A1410008A1410008B2
:1041E000A1410008254300084F420008DB420008B7
:1041F000A1410008A141000847430008A14100086F
:104200004F420008A1410008A1410008E342000814
:1042100033681A1D1B68326004F1420684F842308C
:1042200001239DE033682068191D3160060601D521
:104230001D6803E04506FBD5B3F90050002D03DAF5
:104240002D236D4284F843300A23594810E0216839
:104250003368080653F8045B02D4490648BFADB280
:104260006F2F5348336059D10823002184F843103D
:104270006668002EA66005DB21682E4321F004014C
:1042800021604DD01646B5FBF3F103FB1157C75D16
:1042900006F8017D2F46BB420D46F4D9082B0BD101
:1042A0002368DF0708D5236961689942DEBF3023A0
:1042B00006F8013C06F1FF36921B22614B4621466F
:1042C0004046CDF800A003AAFFF7E4FE01304CD130
:1042D0004FF0FF3004B0BDE8F087236843F02003BF
:1042E00023607827334884F84570236831681F06B7
:1042F00051F8045B02D45F0648BFADB23160D90704
:1043000044BF43F0200323601DB11023ADE72848CC
:10431000E9E7236823F020032360F6E70A23A4E7F4
:104320001646BBE733682568181D616930602E06A4
:104330001B6801D5196002E06806FBD519800023CF
:1043400016462361BAE7336800211A1D32601E68E1
:104350006268304600F05AF808B1801B60606368FC
:104360002361002384F84330A8E73246494640469B
:104370002369D0470130ABD023689B0713D4E06892
:10438000039B9842B8BF1846A4E70123324649462A
:104390004046D04701309BD00135E36803995B1A52
:1043A000AB42F2DCEBE7002504F11906F5E700BFAC
:1043B0002D4500083E450008884210B501EB020477
:1043C00002D98442234607D8431EA14207D011F8E0
:1043D000012B03F8012FF8E70244824200D110BDFF
:1043E00013F8011D02F8011DF7E7000038B500239E
:1043F000054D044608462B60FFF748FA431C02D1DE
:104400002B6803B1236038BD98030020034610B524
:10441000C9B202449342184601D1002003E0047857
:1044200001338C42F6D110BD2DE9F0410746144608
:104430000D4621B91146BDE8F041FFF743BC2AB94A
:10444000FFF7D6FB25462846BDE8F08100F01AF8B4
:104450008442064602D8B4EB500FF4D821463846C1
:10446000FFF730FC804608B94546ECE7B4422246E7
:10447000294628BF3246FFF7ADFB29463846FFF7ED
:10448000B7FBF1E751F8043C181F002BBCBF0B58D9
:10449000C0187047F8B500BFF8BC08BC9E4670470E
:0C44A000F8B500BFF8BC08BC9E46704791
:1044AC005241573A20256C64207C20563A20256CCA
:1044BC00642E2530366C642056207C205241575F88
:1044CC00534F46543A20256C64207C20565F534F42
:1044DC0046543A20256C642E2530366C6420560DDB
:1044EC000A00000001020000020304050607080987
:1044FC000A0B0C0D0E0F101000000000010203043B
:10450C000000000000000000010203040607080977
:10451C00232D302B2000686C4C00656667454647A0
:10452C000030313233343536373839414243444523
:10453C004600303132333435363738396162636492
:04454C0065660000A0
:08455000A0BCFF7F0100000088
:04455800310E000818
:04455C000D0E000838
:10456000010000001000000000127A00100000207E
:104570000000000060020020C8020020300300207C
:10458000000000000000000000000000000000002B
:10459000000000000000000000000000000000001B
:1045A000000000000000000000000000000000000B
:0C45B000000000000000000000000000FF
:0400000508003AB500
:00000001FF
